:0330000002300695
:03305F0002300339
:0330030002312F68
:10306200E58290138BF0E0FF90800075F000EF0294
:10307200405610980280FBAE997F008E828F832289
:10308200AF83E58290138CF0EFA3F010990280FBDE
:1030920090138CE0FEA3E08E999000002290138E94
:1030A200E4F0A3F07E007F00C007C006123074ACCB
:1030B20082AD83D006D0078C028D03C3EA9430EB35
:1030C2009400405D8C028D03C374399AE49B405195
:1030D20090138EE0FAA3E0FB90152EEAF0EBA3F03A
:1030E20090000AC007C006C005C00412431FAA828E
:1030F200AB83D004D005EC24D0F8ED34FFF9901363
:103102008EE82AF0E93BA3F08C828D83123082D0C4
:1031120006D0070EBE00010FC3EE9404EF940040E8
:103122008790138EE0FEA3E08E82F583229015181D
:10313200E4F0A3F090151AF0A3F074E5C0E0744E29
:10314200C0E012407115811581741DC0E0744FC03A
:10315200E0124071158115817458C0E0744FC0E0CF
:10316200124071158115817466C0E0744FC0E0127F
:103172004071158115817489C0E0744FC0E012401E
:10318200711581158174AAC0E0744FC0E0124071BC
:103192001581158174DBC0E0744FC0E012407115D7
:1031A2008115817414C0E07450C0E0124071158121
:1031B2001581743DC0E07450C0E012407115811554
:1031C200817487C0E07450C0E0124071158115818E
:1031D2007E007F00C007C00674D4C0E07450C0E017
:1031E2007480C0E01244A115811581158174FAC062
:1031F200E07450C0E07480C0E01244A115811581D2
:10320200158112309FAC82AD83D006D0078C028D1F
:1032120003C3EA9430EB940040428C028D03C374E2
:10322200C09A74129B40358C028D03EA540F702CA5
:103232008C828D83C007C006C005C0041241B6AAA5
:1032420082AB83D004D005D006D0078B017B0090DF
:103252001390EAF0E9A3F0EBA3F0801FC007C006C9
:10326200C005C0047440C0E07451C0E01240711542
:10327200811581D004D005D006D007901390E0F9D3
:10328200A3E0FAA3E0E94A7022C007C006C005C065
:1032920004747FC0E07451C0E01240711581158141
:1032A200D004D005D006D007023345C007C006C0FF
:1032B20005C004C004C005749BC0E07451C0E01294
:1032C2004071E58124FCF581D004D005D006D007F9
:1032D200901390E0FAA3E0FB9013EAEAF0EBA3F07C
:1032E200901390E0F9A3E0FAA3E0EC29F9ED3AFAA1
:1032F200901426E9F0EAA3F0901462ECF0EDA3F04A
:10330200EE2EFAEF33FBEA24EAF582EB3413F5836F
:10331200E0FAA3E0FBC007C006C005C004C002C0BB
:103322000374D2C0E07451C0E07480C0E01244A1C2
:10333200E58124FBF581D004D005D006D0070EBE6E
:1033420000010F8C028D03C3EA9448EB94094003F9
:10335200023473901390E0F9A3E0FAA3E0FBE94A88
:1033620070030234738C828D83C007C006C005C00F
:10337200041241B6AA82AB83D004D005D006D0078E
:103382008B017B00901393EAF0E9A3F0EBA3F0EA40
:10339200497025C007C006C005C00474F1C0E074BE
:1033A20051C0E07480C0E01244A1158115811581DD
:1033B200D004D005D006D007901393E0FAA3E0FB27
:1033C2009013ECEAF0EBA3F0901393E0F9A3E0FA88
:1033D200A3E0EC29F9ED3AFA901428E9F0EAA3F017
:1033E200901464ECF0EDA3F0901389ECF0EDA3F0EF
:1033F200C007C0067410C0E07452C0E012407115DC
:10340200811581D006D007EE2EFCEF33FDEC24EAC5
:10341200F582ED3413F583E0FCA3E0FDC007C0069E
:10342200C004C005743EC0E07452C0E07480C0E0C5
:103432001244A1E58124FBF581D006D00790151630
:1034420074012EF0E43FA3F090149EE4F0A3F090F8
:103452001389E0FCA3E0FD9014DAECF0EDA3F09008
:103462001389E0FCA3E0FD9014DCECF0EDA3F08006
:103472002E901390E0FBA3E0FCA3E0FD8B828C83F3
:103482008DF0C007C006123EFF7464C0E07452C0E3
:10349200E012407115811581D006D0070231D67431
:1034A2009AC0E07452C0E0124071158115817E000D
:1034B2007F00901516E0F50FA3E0F510C007C006D7
:1034C20074DCC0E07452C0E01240711581158112A3
:1034D2003074AA82AB83D006D0070EBE00010FBAA9
:1034E2003F05BB0002800C90151AE02401F0A3E016
:1034F2003400F08A828B83C007C006C003C0021268
:103502003082D002D003D006D007C007C006C00365
:10351200C002C006C00774F4C0E07452C0E07480F8
:10352200C0E01244A1E58124FBF581D002D003D092
:1035320006D0078A008B01C3E89461E99400500326
:103542000236558A008B01C3747A98E499500302BB
:1035520036559014DAE0F8A3E0F9487003023655C4
:10356200C006C0077582AAC007C006C003C0021207
:103572003062D002D003D006D007901390E0F50855
:10358200A3E0F509A3E0F50A901518E0F50BA3E016
:10359200F50CE50B2508F508E50C3509F5098A0651
:1035A2008B07850882850983850AF0EE12405690C2
:1035B20015187401250BF0E4350CA3F0901518E0F2
:1035C200F50BA3E0F50C90149EE50BF0E50CA3F0CF
:1035D200901389E0F8A3E0F9E8C3950BF8E9950C9C
:1035E200F99014DAE8F0E9A3F0C007C006C003C0FE
:1035F20002C00BC00C740DC0E07453C0E07480C0F4
:10360200E01244A1E58124FBF581D002D003D0066B
:10361200D007901390E0F8A3E0F9A3E0FFE50B28B0
:10362200F8E50C39F9C007C006C000C001C007C0E8
:1036320002C0037420C0E07453C0E07480C0E01282
:1036420044A1E58124F8F581D006D007D007D00641
:103652000234BEBA2A05BB00028030BA2B06BB0078
:1036620003023710BA2D06BB0003023890BA3D069A
:10367200BB0003023C4DBA3F06BB0003023978BAD5
:103682004006BB0003023DBA023EC7C007C0067433
:1036920037C0E07453C0E012407115811581748AFD
:1036A200C0E07453C0E01240711581158174AAC044
:1036B200E07453C0E01240711581158174C8C0E0F6
:1036C2007453C0E01240711581158174F6C0E07424
:1036D20053C0E012407115811581742CC0E07454FE
:1036E200C0E0124071158115817452C0E07454C05B
:1036F200E012407115811581749DC0E07454C0E0E0
:1037020012407115811581D006D0070234BEC00760
:10371200C00674EFC0E07454C0E07480C0E012448C
:10372200A115811581158112309FAA82AB83D00623
:10373200D0078A008B01C3741E98E49940030234B7
:10374200BE8A008B01C3E8942CE994014003023441
:10375200BEC006C00790152EE50FF0E510A3F0904D
:103762000003C007C006C003C00212431FA882A9FB
:1037720083D002D003D006D007E82490F50BE934B9
:1037820013F50C8A828B83C003C0021241B6AE824B
:10379200AF83D002D0038E088F09750A00850B8291
:1037A200850C83E508F0E509A3F0E50AA3F0E50F2F
:1037B200250FF50DE51033F50EE50D24EAF582E54A
:1037C2000E3413F583A908AE09E9F0EEA3F0E50D76
:1037D2002426F582E50E3414F583EA2508F9EB3543
:1037E20009FEE9F0EEA3F0E50D2462F582E50E3460
:1037F20014F583EAF0EBA3F0E50D249EFEE50E340A
:1038020014FF8E828F83E4F0A3F0E50D24DAF8E54D
:103812000E3414F98E828F83E0FEA3E0FFEAC39E8A
:10382200FAEB9FFB88828983EAF0EBA3F0C007C022
:1038320006C00FC0107439C0E07455C0E012407168
:10384200E58124FCF581D006D007850B82850C83A7
:10385200E0FBA3E0FEA3E0FFC007C006C003C00672
:10386200C007C00FC010745EC0E07455C0E0748021
:10387200C0E01244A1E58124F8F581D006D0070505
:103882000FE4B50F020510D007D0060234BEC00700
:10389200C006747DC0E07455C0E07480C0E012447C
:1038A200A115811581158112309FAA82AB83D006A2
:1038B200D0078A008B01C3E50F98E51099500302E7
:1038C2003958EA4B7003023958C006C00790152ECA
:1038D200EAF0EBA3F0900003C007C006C003C002E9
:1038E20012431FA882A983D002D003D006D007E8D2
:1038F2002490F582E93413F583E0F8A3E0F9A3E01C
:10390200FF888289838FF0C007C006C003C00212FD
:103912003EFFD002D003D006D007EA2AFEEB33FFE7
:10392200EE24EAF582EF3413F583E4F0A3F0C00746
:10393200C006C002C00374A9C0E07455C0E0748020
:10394200C0E01244A1E58124FBF581D006D007D066
:1039520007D0060234BEC007C00674BFC0E074556B
:10396200C0E07480C0E01244A1158115811581D098
:1039720006D0070234BE7582D0C007C0061230627C
:10398200740DC0E07456C0E07480C0E01244A1150A
:1039920081158115817448C0E07456C0E07480C0FE
:1039A200E01244A11581158115817462C0E074563C
:1039B200C0E07480C0E01244A115811581158174A4
:1039C20083C0E07456C0E07480C0E01244A1158147
:1039D2001581158174A2C0E07456C0E07480C0E005
:1039E2001244A115811581158174C4C0E07456C0BA
:1039F200E07480C0E01244A115811581158174EF35
:103A0200C0E07456C0E07480C0E01244A115811574
:103A12008115817417C0E07457C0E07480C0E01251
:103A220044A1158115811581D006D007AA0FAB10CC
:103A320078007900C006C00788068907C3EE9AEFAE
:103A42009BD007D0064003023B0DE828F50DE93371
:103A5200F50EE50D24EAF582E50E3413F583E0F563
:103A62000BA3E0F50CE50B450C7003023B05C00609
:103A7200C007E50D24DAF582E50E3414F583E0FE85
:103A8200A3E0FFE50D249EF582E50E3414F583E0F4
:103A9200F508A3E0F509E50D2462F582E50E34147C
:103AA200F583E0F511A3E0F512E50D2426F582E594
:103AB2000E3414F583E0FCA3E0FDC007C006C0038A
:103AC200C002C001C000C006C007C008C009C011C2
:103AD200C012C004C005C00BC00CC000C001744DB0
:103AE200C0E07457C0E07480C0E01244A1E58124B4
:103AF200F1F581D000D001D002D003D006D007D09A
:103B020007D00608B8000109023A36C007C006907D
:103B1200151AE0C0E0A3E0C0E07472C0E07457C0C0
:103B2200E07480C0E01244A1E58124FBF581901588
:103B32001AE4F0A3F074B6C0E07457C0E07480C019
:103B4200E01244A1158115811581D006D007901588
:103B520018E0FCA3E0FD7A007B008A008B01C3E839
:103B62009CE99D4003023C269015307440F0E4A38A
:103B7200F08A828B83C007C006C005C004C003C0A0
:103B82000212433FE5828583F0D002D003D004D0F5
:103B920005D006D00745F0702DC007C006C005C08D
:103BA20004C003C00274CEC0E07457C0E07480C089
:103BB200E01244A1158115811581D002D003D004F1
:103BC200D005D006D007C006C007901390E0F8A336
:103BD200E0F9A3E0FFEA28F8EB39F9888289838FBC
:103BE200F0124EC3F87F00C007C006C005C004C073
:103BF20003C002C000C00774D1C0E07457C0E074B3
:103C020080C0E01244A1E58124FBF581D002D003FB
:103C1200D004D005D006D0070ABA00010BD007D0D5
:103C220006023B5C901518E4F0A3F0C007C00674CE
:103C3200D6C0E07457C0E07480C0E01244A1158180
:103C420015811581D006D0070234BE901518E0FC0C
:103C5200A3E0FD901518E0F5F0A3E045F06027C061
:103C620007C006C005C0047414C0E07458C0E074F4
:103C720080C0E01244A1158115811581D004D005C0
:103C8200D006D0078025C007C006C005C0047460F6
:103C9200C0E07458C0E07480C0E01244A1158115E0
:103CA200811581D004D005D006D0077A007B008A26
:103CB200008B01C3E89CE99D4003023D9A901530B8
:103CC2007410F0E4A3F08A828B83C007C006C0059B
:103CD200C004C003C00212433FE5828583F0D002D4
:103CE200D003D004D005D006D00745F0704CC006F2
:103CF200C007901390E0F8A3E0F9A3E0FFEA28F8E8
:103D0200EB39F9C007C006C005C004C003C002C039
:103D120000C001C0077478C0E07458C0E07480C06D
:103D2200E01244A1E58124FAF581D002D003D00447
:103D3200D005D006D007D007D006C006C007901322
:103D420090E0F8A3E0F9A3E0FFEA28F8EB39F9885C
:103D52008289838FF0124EC3F87F00C007C006C06D
:103D620005C004C003C002C000C0077482C0E07472
:103D720058C0E07480C0E01244A1E58124FBF581C3
:103D8200D002D003D004D005D006D0070ABA000171
:103D92000BD007D006023CB1C007C0067486C0E053
:103DA2007458C0E07480C0E01244A11581158115D9
:103DB20081D006D0070234BE901390E0FBA3E0FC52
:103DC200A3E0FD8B828C838DF0C007C006123EFFFC
:103DD200D006D007AC0FAD107A007B008A008B01B1
:103DE200C3E89CE99D4003023E9EC006C0079015B1
:103DF2002EECF0EDA3F0900003C007C006C005C092
:103E020004C003C00212431FA882A983D002D003B8
:103E1200D004D005D006D007E82490F582E9341307
:103E2200F583E0F8A3E0F9A3E0FF888289838FF0AD
:103E3200C007C006C005C004C003C002123EFFD0C6
:103E420002D003D004D005D006D007EA2AFEEB3315
:103E5200FFEE24EAF582EF3413F583E4F0A3F0C019
:103E620007C006C005C004C003C002C002C003747C
:103E7200BDC0E07458C0E07480C0E01244A1E58186
:103E820024FBF581D002D003D004D005D006D007A0
:103E92000ABA00010BD007D006023DDEC007C006F9
:103EA20074D7C0E07458C0E0124071158115817456
:103EB20019C0E07459C0E0124071158115811231A8
:103EC2002FD006D007C007C006745BC0E07459C08B
:103ED200E012407115811581749AC0E07452C0E0FD
:103EE200124071158115817499C0E07459C0E012B5
:0D3EF200407115811581D006D0070234BE45
:104EE30088130A200D20202D2D2D2D2D2D2D2D2D18
:104EF3002D2D2D2D202020202020202057656C6370
:104F03006F6D6520202020202020202D2D2D2D2D7C
:104F13002D2D2D2D2D2D2D2D2D000A200D20202062
:104F23002020202020202020496E73747275637422
:104F3300696F6E20666F7220636F6D6D616E6420A2
:104F4300616E642063686172616374657220696E67
:104F53007075743A000A200D20456E746572200A3C
:104F63000D3A000A200D2020202020272B27203A4D
:104F730020746F204164642061204E657720427560
:104F8300666665723A000A200D2020202020272D16
:104F930027203A20746F20436C65616E20612042A4
:104FA30075666665723A000A200D202020202027AE
:104FB3003F27203A20746F20446973706C61792015
:104FC300612044657461696C656420486561702083
:104FD3005265706F72743A000A200D202020202041
:104FE300274027203A20746F20436C65617220614B
:104FF3006C6C20427566666572732044617461202F
:10500300616E6420537461727420416761696E3A02
:10501300000A200D2020202020273D27203A20743D
:105023006F2044617461207072696E74696E6720C9
:105033006F6620627566666572000A200D20736DC7
:10504300616C6C202761272D277A27203A20666F11
:1050530072206368617220692F70202D20746F2085
:1050630053746F7265207468657365204368617259
:1050730061637465727320696E204275666665723A
:1050830020303A000D0D202D2D2D2D2D2D2D2D2DC4
:105093002D2D2D2D2D2D2D2D2D2D2D2D2D2D2D2D3D
:1050A3002D2D2D2D2D2D2D2D2D2D2D2D2D2D2D2D2D
:1050B3002D2D2D2D2D2D2D2D2D2D2D2D2D2D2D2D1D
:1050C3002D2D2D2D2D2D2D2D2D2D2D2D2D2D0A0D50
:1050D300000A0D20456E74657220627566666572FE
:1050E3002073697A6520666F7220627566666572E1
:1050F300203020262031000A0D2042756666657235
:105103002073697A65206D7573742062652062650A
:10511300747765656E205B3438202D203438303049
:105123005D2062797465732C202620646976697327
:1051330069626C65206279203136203A000A200DBD
:105143002020506C6561736520456E74657220760E
:10515300616C6964206275666665722073697A653D
:10516300206163636F7264696E6720746F20496E98
:10517300737472756374696F6E0A0D000A200D20D3
:1051830020444D4120666F722062756666657230F9
:10519300206661696C6564000A200D206D616C6C8A
:1051A3006F63207375636365737366756C2C202559
:1051B3006420422044204D2F7220666F7220627556
:1051C3006666657220616C6C6F6361746564000A66
:1051D300200D20427566666572203020637265611A
:1051E300746564206174203A3058302578000A0DC4
:1051F3004D616C6C6F6320666F72204275666665E5
:10520300722031206661696C65640A0D000A200D05
:1052130020444D4120666F72204275666665722098
:105223003120202D206D616C6C6F63205375636397
:1052330065737366756C0A200D20000A200D2042E9
:1052430075666665722031206372656174656420DA
:105253006174203A203A3058302578200A200D20F6
:10526300000A200D204D616C6C6F6320666F722005
:105273004275666665722031206661696C65642CCF
:1052830020506C656173652072652D656E7465725F
:105293002076616C7565000A200D2050726573736A
:1052A30020272A27202D20666F722068656C7020C6
:1052B3002D20696E737472756374696F6E20666FE7
:1052C3007220636F6D6D616E6420616E642063682C
:1052D300617220696E707574000A200D20456E742A
:1052E300657220636861726163746572203A200994
:1052F300000A200D20546F74616C2072782062794B
:10530300746573203D20256409004E6F2E2053746D
:105313006F7265642042203D202564200009272503
:105323006327202D2073746F7265642061742025B8
:10533300700A0D000A200D20202D2D2D2D2D2D2D31
:105343002D2D20496E737472756374696F6E2066B8
:105353006F7220636F6D6D616E6420616E64206394
:10536300686172616374657220696E7075743A2046
:10537300200A0D20456E746572200A0D2D2D2D2DEA
:105383002D2D2D2D2D2D000A200D2020272B2720FC
:105393003A20746F204164642061204E6577204277
:1053A30075666665723A000A200D2020272D272096
:1053B3003A20746F20436C65616E206120427566EC
:1053C3006665723A000A200D2020273F27203A20E5
:1053D300746F20446973706C617920612044657433
:1053E30061696C65642048656170205265706F72F5
:1053F300743A000A200D2020274027203A20746F9A
:1054030020436C65617220616C6C20427566666531
:105413007273204461746120616E642053746172FD
:105423007420416761696E3A000A200D2020273DF0
:1054330027203A20746F2044617461207072696E72
:1054430074696E67206F6620627566666572000A0E
:10545300200D2020736D616C6C202761272D277A26
:1054630027203A20666F72206368617220692F706B
:10547300202D20746F2053746F72652074686573D8
:1054830065204368617261637465727320696E207D
:1054930042756666657220303A000A0D202D2D2D67
:1054A3002D2D2D2D2D2D2D2D2D2D2D2D2D2D2D2D29
:1054B3002D2D2D2D2D2D2D2D2D2D2D2D2D2D2D2D19
:1054C3002D2D2D2D2D2D2D2D2D2D2D2D2D2D2D2D09
:1054D3002D2D2D2D2D2D2D2D2D2D2D2D2D2D2D2DF9
:1054E3002D2D2D2D2D2D2D2D0A0D20000A0D2020C3
:1054F30020546F20637265617465206E6577206246
:1055030075666665722C200A0D20456E74657220DF
:105513006275666665722073697A65206265747761
:1055230065656E20333020746F203330302062790C
:10553300746573093A000A0D20206D616C6C6F630A
:10554300207375636365737366756C20666F722071
:105553006275666665725B25645D000A0D20202016
:1055630041646472657373206F6620627566666555
:10557300725B25645D3A202570000A0D20202045CA
:105583006E74657220627566666572206E756D62F3
:10559300657220796F752077616E7420746F206354
:1055A3006C6561722E000A0D202042756666657275
:1055B30020256420436C6561726564000A0D202018
:1055C300506C6561736520656E74657220636F72DC
:1055D3007265637420627566666572206E756D62AE
:1055E30065722C596F75206861766520656E7465E8
:1055F30072656420612077726F6E672042756666FC
:105603006572206E756D626572000A200D20202080
:105613002D2D2D2D2D2D2D2D2D2D2D2D20202020EB
:1056230020202048656170205265706F72742020BD
:105633002020202D2D2D2D2D2D2D2D2D2D2D2D2DBE
:105643002D2D2D0A000A0D20425F4E202020203AE6
:1056530020427566666572204E756D626572000A3A
:105663000D2053745F616464723A20427566666507
:1056730072205374617274204164647265737300A1
:105683000A0D20455F41646472203A2042756666C4
:10569300657220456E642041646472657373000A09
:1056A3000D20425F53697A65203A20416C6C6F6329
:1056B30061746564204275666665722053697A6514
:1056C300000A0D204E5F53746F43203A204E6F2E15
:1056D300206F662053746F7261676520436861723F
:1056E3007320696E20627566666572000A0D204E2E
:1056F3005F4653706163653A204E6F2E2046726594
:105703006520537061636520696E20627566666506
:10571300720A0D000A0D20425F4E20092053745F68
:10572300616464722020455F416464722020425F9B
:1057330053697A6520204E5F53746F4320204E5F78
:10574300465370616365200A0D000A0D2025640924
:1057530020307830257809203078302578092020CA
:105763002564092020256409092025640A0D000AFF
:105773000D20204E756D626572206F662073746F05
:105783007261676520636861726163746572732017
:1057930063757272656E746C7920696E20627566CA
:1057A3006665722030202D2D3E202564200A200DB1
:1057B3002020000A0D20204461746120696E20427C
:1057C300756666657220303A2009000A0D0025636C
:1057D3002020000A200D2020202D2D2D2D2D2D2DB4
:1057E3002D2D2D2D2D2D2D2D2D2D2D2D2D2D2D2DE6
:1057F3002D2D2D2D2D2D2D2D2D2D2D2D2D2D2D2DD6
:105803002D2D2D2D2D2D2D2D2D2D2D2D2D2D0A0D08
:10581300000A0D2020202D2D2D2D2D2D2D2D2D2D4C
:105823002D2D2D2D20446973706C6179696E67206D
:1058330063757272656E7420636F6E74656E742027
:105843006F66206275666665725F30202D2D2D2D83
:105853002D2D2D2D2D2D2D2D2D2D0A0D000A0D2035
:10586300427566666572203020697320656D7074B9
:10587300793A0A0D000A0D2020202570203A0025D0
:105883007820000A0D202D2D2D2D2D2D2D2D2D2D84
:105893002D2D2D2D2D2D2D2D2D2D2D2D2D2D2D2D35
:1058A3002D2D2D2D2D2D2D2D2D2D2D2D2D2D2D2D25
:1058B3002D2D2D2D2D2D2D0A0D000A200D202020FC
:1058C30042756666657220256420436C6561726566
:1058D30064200A000A200D202D2D2D2D2D2D2D2D78
:1058E3002D2D2D2D2D2D2D2D416C6C204275666691
:1058F30065727320436C65617265642D2D2D2D2DAA
:105903002D2D2D2D2D2D2D2D2D2D2D2D2D2D2D2DC4
:105913002D2D2D2D2D000A200D202D2D2D2D2D2D3E
:105923002D2D2D2D2D2D2D2D2D2D2D2D2D2D2D2DA4
:105933002D2D2D2D2D2D2D2D2D2D2D2D2D2D2D2D94
:105943002D2D2D2D2D2D2D2D2D2D2D2D2D2D2D2D84
:105953002D2D2D2D2D2D2D000A200D20212121212E
:10596300212D2D2D2D2D2D2D2D2D496E76616C691B
:105973006420636F6D6D616E64206F722063686174
:105983007220692F702D2D2D2D2D2D2D2D2D2D2D8B
:105993002121212121000A200D202D2D2D2D2D2DFA
:1059A3002D2D2D2D2D2D2D2D2D2D2D2D2D2D2D2D24
:1059B3002D2D2D2D2D2D2D2D2D2D2D2D2D2D2D2D14
:1059C3002D2D2D2D2D2D2D2D2D2D2D2D2D2D2D2D04
:0459D3002D0A0D008C
:0259E2000000C3
:103EFF00AFF0AE83E58290151CF0EEA3F0EFA3F0C8
:103F0F0090151CE0FDA3E0FEA3E090151CE0F5F07A
:103F1F00A3E045F0700122901521E4F0A3F0901575
:103F2F0026E0FBA3E0FC90151FEBF0ECA3F090153F
:103F3F00237426F07415A3F090151FE0FBA3E0FC8B
:103F4F004B60418B018C02C003C0048D008E04C3F3
:103F5F00E998EA9CD004D003502A901521EBF0EC9D
:103F6F00A3F074022BFBE43CFC901523EBF0ECA3C5
:103F7F00F08B828C83E0FBA3E0FC90151FEBF0EC41
:103F8F00A3F080B490151FE0FEA3E0FF90151CE096
:103F9F00FBA3E0FCA3E0EB24FEFBEC34FFFC74027C
:103FAF002BFAE43CFD8A828D83EEF0EFA3F090159F
:103FBF0023E0F8A3E0F988828983EBF0ECA3F08B80
:103FCF00828C83E0F8A3E0F9EEB50033EFB5012F53
:103FDF0088828983A3A3E0FEA3E0FF8A828D83EE0C
:103FEF00F0EFA3F08B828C83E0FEA3E0FF8E828F35
:103FFF0083E0FEA3E0FF8B828C83EEF0EFA3F090C3
:10400F001521E0FEA3E0FF4E603C8E828F83E0F827
:10401F00A3E0F9E8B5032FE9B5042B8B828C83E07D
:10402F00FBA3E0FC8E828F83EBF0ECA3F074022EE7
:10403F00FEE43FFF8A828D83E0FAA3E0FD8E828F3C
:07404F0083EAF0EDA3F0226B
:06303500E478FFF6D8FD6F
:103013007902E94400601B7A019059E2787075A047
:1030230015E493F2A308B8000205A0D9F4DAF27507
:02303300A0FFFC
:1040560020F71130F6138883A88220F509F6A88385
:104066007583002280FEF280F5F022C01585811549
:10407600E51524FDF8868318868218E493A324DBCD
:10408600600C2425600512415F80F0024177D2D58D
:10409600E493A3C083C082B4731486F01886831891
:1040A600868218124EC36054A312415F80F5B46332
:1040B6000818E61812415F8043B46417E630E746F5
:1040C60018E6F42401F608E6F43400F6742D1241DD
:1040D6005F8033B4782D868318868218E4124150A7
:1040E600E58312414FE583124150E58212414FE5C7
:1040F6008212415030D505743012415FD082D08390
:10410600024081B475F6E6FA18E6F9187C107D27A8
:1041160012413AFF7CE87D0312413AC4F5837C6480
:104126007D0012413A4283E975F00A84C445F0F5F0
:1041360082EF80A97B000BC3E99CF9EA9DFA50F651
:104146001BE92CF9EA3DFAEB22C4540F700320D583
:104156001FC2D52490D43440D4C083C082C0F0F5A9
:1041660082E8C0E0123082D0E0F8D0F0D082D0836E
:1041760022D015229015267401F07400A3F0904EFB
:10418600E3E493FE740193FF1EBEFF011FEE2401BC
:10419600FEEF3400FF900001EEF0EFA3F09015263D
:1041A600E0FEA3E0FF8E828F83A3A3E4F0A3F022B8
:1041B600AF83E582901528F0EFA3F0901526E0F581
:1041C600F0A3E045F0700312417A901528E0FEA3B3
:1041D600E0FF4E600E74022EFCE43FFDC3EC9EED44
:1041E6009F50049000002290152874022EF0E43FA0
:1041F600A3F0901528E0FEA3E0FFC3EE9404EF942D
:104206000050099015287404F0E4A3F0901526E0F8
:10421600FEA3E0FF90152AEEF0EFA3F090152C74A4
:1042260026F07415A3F090152AE0FEA3E0FF4E7069
:104236000302431B8E828F83E0FCA3E0FD8C028D7C
:10424600038E008F01EAC398FAEB99FB8A008B0173
:10425600901528E0F513A3E0F514C3E89513E99546
:104266001450030242F874042513F8E43514F9C314
:10427600EA98EB99404C8E028F03E5132AFAE5146F
:104286003BFB8A828B83ECF0EDA3F074022AFCE4FC
:104296003BFD8E828F83A3A3E0F8A3E0F98C828D89
:1042A60083E8F0E9A3F090152CE0FCA3E0FD8C82F6
:1042B6008D83EAF0EBA3F08E828F83EAF0EBA3F016
:1042C600801C90152CE0FCA3E0FD8E828F83A3A3B7
:1042D600E0FAA3E0FB8C828D83EAF0EBA3F0901565
:1042E6002AE0FCA3E0FD74022CFCE43DFD8C828DEB
:1042F600832274022EFEE43FFF90152CEEF0EFA30E
:10430600F08E828F83E0FEA3E0FF90152AEEF0EF99
:10431600A3F002422C90000022AA83AB828BF0907D
:10432600152EE0A4F8A9F08AF0E0A429F98BF0A3F1
:10433600E0A429F58388822222AF83E58290153294
:10434600F0EFA3F0901532E0FEA3E0FF30E709C3DB
:10435600E49EFCE49FFD80048E048F05901530E0FA
:10436600FEA3E0FF30E709C3E49EFAE49FFB800466
:104376008E028F03901534EAF0EBA3F08C828D83C6
:104386001243A7AE82AF83901532E0A3E030E70C6C
:10439600C3E49EFCE49FFD8C828D83228E828F83F4
:1043A60022AF83E582901536F0EFA3F0901538E43E
:1043B600F0901536E0FEA3E0FF7D00901534E0FB9B
:1043C600A3E0FC235401FA7036EB2BFBEC33FC9094
:1043D6001534EBF0ECA3F0901534E0FBA3E0FCC33E
:1043E600EE9BEF9C5011ECC313CB13CBFC90153412
:1043F600EBF0ECA3F080080D901538EDF080BC9042
:104406001538E0FF901536E0FDA3E0FE901534E088
:10441600FBA3E0FCC3ED9BEE9C400B901536EDC371
:104426009BF0EE9CA3F0901534E0FDA3E0C313CD02
:1044360013CDFE901534EDF0EEA3F08F061FEE704F
:0D444600C3901536E0FEA3E08E82F58322C0
:10303B007800E84400600A790175A000E4F309D830
:10304B00FC786FE84415600C7916900001E4F0A34E
:04305B00D8FCD9FACA
:10445300C0158581157E008E83123082D01522AF60
:10446300F0AE83E58290153AF0EEA3F0EFA3F0905F
:10447300153AE0FDA3E0FEA3E0FF901539E0FC90C0
:10448300154EE4F0A3F0A3F0901551EDF0EEA3F078
:10449300EFA3F0901554ECF09044530245AAC015D5
:1044A300E581F51524FBFF90154EE4F0A3F0A3F08E
:1044B300E51524FBF8901551E6F008E6A3F008E6AD
:1044C300A3F0901554EFF09044531245AAD015224F
:1044D300E58290154AF0E0FF901540E0C0E0A3E0CC
:1044E300C0E0A3E0C0E01244EE800D90153EE0C0B2
:1044F300E0A3E0C0E08F822215811581158190151C
:1045030048E02401F0A3E03400F022E58290154B4B
:10451300F0E02430FF24C6500D74072FFF90153DA3
:10452300E060034307208F820244D3E58290154C59
:10453300F0E0FFC4540FF582C00712450ED00753B5
:10454300070F8F8202450EE58290154DF0901543BB
:10455300E0FCA3E0FDA3E0FEA3E0FF901547E0FB32
:1045630075202090154DE0F98B00E828F8EF2354CF
:104573000148FBEC2CFCED33FDEE33FEEF33FFC3C0
:10458300EB994007EBC399FB430401E52014FA8A36
:104593002070D5901543ECF0EDA3F0EEA3F0EFA35C
:1045A300F0901547EBF022AF83E582901555F0EFBD
:1045B300A3F0901555E0FEA3E0FF90153EEEF0EF5B
:1045C300A3F090154EE0FDA3E0FEA3E0FF9015409D
:1045D300EDF0EEA3F0EFA3F0901548E4F0A3F09014
:1045E3001551E0FDA3E0FEA3E0FF8D828E838FF0E3
:1045F300124EC3FC90155174012DF0E43EA3F0EF6D
:10460300A3F0EC7003024E9FBC25028003024E9779
:10461300901557E4F0901558F0901559F090155AED
:10462300F090155BF090155CF090155DF090155EC1
:10463300F0901560F0901561F0A3F090156314F0FD
:10464300A3F0901551E0FDA3E0FEA3E0FF8D828E61
:10465300838FF0124EC3FBA3AD82AE83901551ED51
:10466300F0EEA3F0EFA3F0901567EBF0BB25088BFA
:10467300821244D30245E2BB30005003024743EBAE
:1046830024C65003024743901563E0F516A3E0F5F3
:104693001774FFB51663B51760C005C006C0079051
:1046A3001561E0FAA3E0FF90152EEAF0EFA3F09076
:1046B300000AC005C00312431FAE82AF83D003D0EC
:1046C300058B027D00EA2EFEED3FFFEE24D0FEEFC8
:1046D30034FFFF901561EEF0EFA3F0D007D006D0C2
:1046E30005901561E0F5F0A3E045F0600302465044
:1046F3009015587401F0024650C005C006C00790DB
:10470300152EE516F0E517A3F090000AC006C005C4
:10471300C00312431FAA82AF83D003D005D0067E05
:1047230000EB2AFAEE3FFFEA24D0FAEF34FFFF90C2
:104733001563EAF0EFA3F0D007D006D00502465088
:10474300901567E0FBBB2E2FC005C006C007901570
:1047530063E0FAA3E0FFBAFF05BFFF028009D007B9
:10476300D006D005024650D007D006D00590156379
:10477300E4F0A3F0024650BB61004014EB248540F3
:104783000F90156774DF5BF090153D7401F08005A1
:1047930090153DE4F0901567E0FBBB20028075BBEC
:1047A3002B028067BB2D028059BB4202806FBB4343
:1047B30002807CBB4403024A3ABB4603024A60BB05
:1047C3004803024650BB4903024A3ABB4A03024626
:1047D30050BB4C028050BB4F03024A48BB500302FC
:1047E30049A8BB53028077BB5403024650BB550311
:1047F300024A50BB5803024A58BB5A0302465002AE
:104803004A689015577401F0024650901559740187
:10481300F002465090155A7401F002465090155C10
:104823007401F002465090155D7401F002465090F9
:10483300155CE0600E901554E014F9F0901567E7ED
:10484300F0800F901554E024FEFFF08F0190156760
:10485300E7F0901567E0F5821244D3024A7790158A
:1048630054E024FDFFF08F018705098706098707B8
:104873001919901543EDF0EEA3F0EFA3F08D828E9E
:10488300838FF0124EAB858216858317901563E0F4
:10489300FAA3E0FDBAFF0DBDFF0A901563E516F01C
:1048A300E517A3F0901557E0704B901561E0FAA35C
:1048B300E0FDC3E5169AE5179D503A901561EAC3EA
:1048C3009516F0ED9517A3F0901561E0FAA3E0FDBE
:1048D3008A068D071ABAFF011DEE4F6010758220FC
:1048E300C005C0021244D3D002D00580E390156105
:1048F300EAF0EDA3F0901563E0F519A3E0F51A9043
:104903001543E0FAA3E0FDA3E0FF8A828D838FF0D5
:10491300124EC3F518603CC3E495197480851AF0F0
:1049230063F08095F0502C151974FFB51902151A10
:104933008518821244D3901543E0FAA3E0FDA3E067
:10494300FF0ABA00010D901543EAF0EDA3F0EFA3BF
:10495300F080AC901557E07003024A77901561E040
:10496300FEA3E0FFC3E5169EE5179F4003024A77C7
:10497300901561EEC39516F0EF9517A3F0901561AE
:10498300E0FEA3E0FF8E028F051EBEFF011FEA4D6E
:104993007003024A6F758220C007C0061244D3D049
:1049A30006D00780E0901554E024FDFDF08D0187CB
:1049B3001B09871C09871D1919901543E51BF0E591
:1049C3001CA3F0E51DA3F0901545E0FDBD8000405C
:1049D300089015677443F08020BD6000400890156F
:1049E300677450F08013BD40004008901567744908
:1049F300F080069015677458F0901567E0FDF58216
:104A0300C0051244D375823A1244D37582301244DE
:104A1300D37582781244D3D005BD4902800EBD50B0
:104A2300028009901544E0F58212452E901543E06B
:104A3300F58212452E803D90155B7401F090156050
:104A4300740AF0802F9015607408F0802790156029
:104A5300740AF0801F9015607410F0801790155E33
:104A63007401F0800F8B821244D38008901561EE9D
:104A7300F0EFA3F090155EE06071901554E024FC14
:104A8300FFF08F018703098705098706098707193F
:104A93001919901543EBF0EDA3F0EEA3F0EFA3F09B
:104AA30090154374D7F07459A3F07480A3F0901554
:104AB30043E0F51BA3E0F51CA3E0F51D7401251BE2
:104AC300FAE4351CFBAF1D901543EAF0EBA3F0EFBE
:104AD300A3F0851B82851C83851DF0124EC3FF70D6
:104AE300030245E28F821244D380C3901560E070C5
:104AF300030245E290155CE06047901554E014F919
:104B0300F087077E007D007B00901543EFF0EEA356
:104B1300F0EDA3F0EBA3F090155BE06003024BBA5A
:104B2300901543E0FBA3E0A3E0A3E07D007E007FBC
:104B330000901543EBF0EDA3F0EEA3F0EFA3F080AC
:104B43007690155DE06028901554E024FCFFF08F0B
:104B5300018703098705098706098707191919902A
:104B63001543EBF0EDA3F0EEA3F0EFA3F080489034
:104B73001554E024FEFFF08F01870609870719EF1C
:104B83003395E0FDFB901543EEF0EFA3F0EDA3F0BA
:104B9300EBA3F090155BE0701E901543E0FBA3E0E0
:104BA300FDA3E0A3E07E007F00901543EBF0EDA3AF
:104BB300F0EEA3F0EFA3F090155BE0604190154396
:104BC300E0FBA3E0FDA3E0FEA3E0FF30E72B90159D
:104BD30043E0FBA3E0FDA3E0FEA3E0FFC3E49BFBF4
:104BE300E49DFDE49EFEE49FFF901543EBF0EDA3EF
:104BF300F0EEA3F0EFA3F0800590155BE4F09015C1
:104C03005F7401F0901560E0F519751E6D751F1541
:104C1300E4F516F517901547E4F085198212454A15
:104C230090155FE07026901547E0C4F51B851E8242
:104C3300851F83E0FFE51B4207851E82851F83EFE7
:104C4300F0151E74FFB51E02151F800C901547E06A
:104C5300FF851E82851F83F00516E4B5160205172E
:104C630090155FE0B40100E433F0901543E0FAA33C
:104C7300E0FBA3E0FEA3E0FFEA4B4E4F70979015D5
:104C83006EE51EF0E51FA3F0901565E516F0E51738
:104C9300A3F0901561E0F5F0A3E045F070099015DD
:104CA300617401F0E4A3F0901558E0FFE0704790C1
:104CB3001557E0704185161E85171F901561E0FAA0
:104CC300A3E0FBC007AF1E0F8F067F00C3EE9AEF72
:104CD3009BD0075019758220C007C003C00212443D
:104CE300D3D002D003D0071ABAFF011B80D5901589
:104CF30061EAF0EBA3F090155BE0602075822DC0B4
:104D0300071244D3D007901561E024FFFDA3E034DC
:104D1300FFFE901561EDF0EEA3F08056901565E06F
:104D2300F5F0A3E045F0604A901559E060207582E4
:104D33002BC0071244D3D007901561E024FFFDA3D5
:104D4300E034FFFE901561EDF0EEA3F080249015A2
:104D53005AE0601E758220C0071244D3D007901515
:104D630061E024FFFDA3E034FFFE901561EDF0EE5A
:104D7300A3F0901557E07048901565E0F51EA3E089
:104D8300F51F901561E0FAA3E0FBC0078A068B07C5
:104D93001ABAFF011BC3E51E9EE51F9FD0075053A0
:104DA300EF60067D307E0080047D207E008D82C012
:104DB30007C003C0021244D3D002D003D00780CA75
:104DC300901561E0FEA3E0FF901565E0F51EA3E0FA
:104DD300F51FC3E51E9EE51F9F500F901561EEC39F
:104DE300951EF0EF951FA3F08011901561E4F0A3D9
:104DF300F08008901561EAF0EBA3F090156EE0FEE9
:104E0300A3E0FF901565E0F51EA3E0F51FAA1EAD14
:104E13001F151E74FFB51E02151FEA4D6045901540
:104E23005FE0B40100E433F090155FE070140EBE50
:104E330000010F8E828F83E0C4540FFD901547F05D
:104E4300800E8E828F83E0FD53050F901547EDF0A2
:104E5300901547E0F582C007C00612450ED006D074
:104E63000780AA901557E070030245E2901561E0B0
:104E7300FEA3E0FF8E038F051EBEFF011FEB4D70E7
:104E8300030245E2758220C007C0061244D3D00650
:104E9300D00780E08C821244D30245E2901548E0AB
:084EA300FEA3E08E82F58322DC
:0B59D7003C4E4F20464C4F41543E0018
:104EAB00AA82AB83124EC36003A380F8C3E5829A38
:084EBB00F582E5839BF58322DB
:0D300600758120124EDFE582600302300369
:104EC30020F71430F6148883A88220F507E6A88318
:104ED30075830022E280F7E49322E02275820022A8
:00000001FF
